{
  "abi": [
    {
      "inputs": [
        {
          "internalType": "address",
          "name": "_who",
          "type": "address"
        }
      ],
      "name": "setAdminImplementation",
      "outputs": [],
      "stateMutability": "nonpayable",
      "type": "function"
    },
    {
      "inputs": [
        {
          "internalType": "uint256",
          "name": "amount",
          "type": "uint256"
        }
      ],
      "name": "setAppworksWeek8",
      "outputs": [],
      "stateMutability": "nonpayable",
      "type": "function"
    },
    {
      "inputs": [
        {
          "internalType": "address",
          "name": "_implementation",
          "type": "address"
        }
      ],
      "name": "setBeaconImplementation",
      "outputs": [],
      "stateMutability": "nonpayable",
      "type": "function"
    },
    {
      "inputs": [
        {
          "internalType": "address",
          "name": "_implementation",
          "type": "address"
        }
      ],
      "name": "setProxiable",
      "outputs": [],
      "stateMutability": "nonpayable",
      "type": "function"
    },
    {
      "inputs": [
        {
          "internalType": "address",
          "name": "_implementation",
          "type": "address"
        }
      ],
      "name": "setProxyImplementation",
      "outputs": [],
      "stateMutability": "nonpayable",
      "type": "function"
    }
  ],
  "bytecode": {
    "object": "0x608060405234801561001057600080fd5b50610247806100206000396000f3fe608060405234801561001057600080fd5b50600436106100575760003560e01c806358bdf1f11461005c5780637f44abd9146100715780639fdcd3a414610084578063aa99a5e614610097578063d86c5f96146100aa575b600080fd5b61006f61006a3660046101a1565b6100bd565b005b61006f61007f3660046101a1565b6100f3565b61006f6100923660046101a1565b610121565b61006f6100a53660046101a1565b61014f565b61006f6100b83660046101d1565b610178565b6100f06100eb60017fa3f0ad74e5423aebfd80d3ef4346578335a9a72aeaee59ff6cb3582b35133d516101ea565b829055565b50565b6100f06100eb60017fb53127684a568b3173ae13b9f8a6016e243e63b6e8ee1178d6a717850b5d61046101ea565b6100f06100eb60017f360894a13ba1a3210667c828492db98dca3e2076cc3735a920a3ca505d382bbd6101ea565b6100f07fc5f16f0fcc639fa48a6947836d9850f504798523bf8c9a3a87d5876cf622bcf7829055565b6100f07f8ee4cd013c70274c32d062858538d53721b81b121bed571dc99e42bac9f6b5b2829055565b6000602082840312156101b357600080fd5b81356001600160a01b03811681146101ca57600080fd5b9392505050565b6000602082840312156101e357600080fd5b5035919050565b8181038181111561020b57634e487b7160e01b600052601160045260246000fd5b9291505056fea26469706673582212207eedc51edeb484f1b141021097610b755e0b5573261b87170eeee10c41fa0b2664736f6c63430008110033",
    "linkReferences": {}
  },
  "methodIdentifiers": {
    "setAdminImplementation(address)": "7f44abd9",
    "setAppworksWeek8(uint256)": "d86c5f96",
    "setBeaconImplementation(address)": "58bdf1f1",
    "setProxiable(address)": "aa99a5e6",
    "setProxyImplementation(address)": "9fdcd3a4"
  },
  "id": 22
}