{
  "abi": [
    {
      "inputs": [],
      "name": "alarm1",
      "outputs": [
        {
          "internalType": "uint256",
          "name": "",
          "type": "uint256"
        }
      ],
      "stateMutability": "view",
      "type": "function"
    },
    {
      "inputs": [],
      "name": "alarm2",
      "outputs": [
        {
          "internalType": "uint256",
          "name": "",
          "type": "uint256"
        }
      ],
      "stateMutability": "view",
      "type": "function"
    },
    {
      "inputs": [
        {
          "internalType": "address",
          "name": "_newOwner",
          "type": "address"
        }
      ],
      "name": "changeOwner",
      "outputs": [],
      "stateMutability": "nonpayable",
      "type": "function"
    },
    {
      "inputs": [],
      "name": "getTimestamp",
      "outputs": [
        {
          "internalType": "uint256",
          "name": "",
          "type": "uint256"
        }
      ],
      "stateMutability": "view",
      "type": "function"
    },
    {
      "inputs": [
        {
          "internalType": "uint256",
          "name": "_alarm1",
          "type": "uint256"
        }
      ],
      "name": "initialize",
      "outputs": [],
      "stateMutability": "nonpayable",
      "type": "function"
    },
    {
      "inputs": [],
      "name": "initialized",
      "outputs": [
        {
          "internalType": "bool",
          "name": "",
          "type": "bool"
        }
      ],
      "stateMutability": "view",
      "type": "function"
    },
    {
      "inputs": [],
      "name": "owner",
      "outputs": [
        {
          "internalType": "address",
          "name": "",
          "type": "address"
        }
      ],
      "stateMutability": "view",
      "type": "function"
    },
    {
      "inputs": [
        {
          "internalType": "uint256",
          "name": "_timestamp",
          "type": "uint256"
        }
      ],
      "name": "setAlarm1",
      "outputs": [],
      "stateMutability": "nonpayable",
      "type": "function"
    },
    {
      "inputs": [
        {
          "internalType": "uint256",
          "name": "_timestamp",
          "type": "uint256"
        }
      ],
      "name": "setAlarm2",
      "outputs": [],
      "stateMutability": "nonpayable",
      "type": "function"
    }
  ],
  "bytecode": {
    "object": "0x608060405234801561001057600080fd5b50610263806100206000396000f3fe608060405234801561001057600080fd5b50600436106100935760003560e01c80638da5cb5b116100665780638da5cb5b146100e7578063a6f9dae114610112578063b2a1974714610144578063e744bf4d14610157578063fe4b84df1461016a57600080fd5b806306c24bd7146100985780631236c069146100b4578063158ef93e146100bd578063188ec356146100e1575b600080fd5b6100a160015481565b6040519081526020015b60405180910390f35b6100a160025481565b6000546100d190600160a01b900460ff1681565b60405190151581526020016100ab565b426100a1565b6000546100fa906001600160a01b031681565b6040516001600160a01b0390911681526020016100ab565b6101426101203660046101e4565b600080546001600160a01b0319166001600160a01b0392909216919091179055565b005b610142610152366004610214565b600255565b610142610165366004610214565b600155565b610142610178366004610214565b600054600160a01b900460ff16156101cc5760405162461bcd60e51b8152602060048201526013602482015272105b1c9958591e481a5b9a5d1a585b1a5e9959606a1b604482015260640160405180910390fd5b6001556000805460ff60a01b1916600160a01b179055565b6000602082840312156101f657600080fd5b81356001600160a01b038116811461020d57600080fd5b9392505050565b60006020828403121561022657600080fd5b503591905056fea26469706673582212206c26eb94895ffb80c9262f4dcfe54c9b45f8fc1a341a93c69d827e0cd308581764736f6c63430008110033",
    "linkReferences": {}
  },
  "methodIdentifiers": {
    "alarm1()": "06c24bd7",
    "alarm2()": "1236c069",
    "changeOwner(address)": "a6f9dae1",
    "getTimestamp()": "188ec356",
    "initialize(uint256)": "fe4b84df",
    "initialized()": "158ef93e",
    "owner()": "8da5cb5b",
    "setAlarm1(uint256)": "e744bf4d",
    "setAlarm2(uint256)": "b2a19747"
  },
  "id": 21
}