{
  "abi": [
    {
      "inputs": [],
      "name": "alarm1",
      "outputs": [
        {
          "internalType": "uint256",
          "name": "",
          "type": "uint256"
        }
      ],
      "stateMutability": "view",
      "type": "function"
    },
    {
      "inputs": [],
      "name": "alarm2",
      "outputs": [
        {
          "internalType": "uint256",
          "name": "",
          "type": "uint256"
        }
      ],
      "stateMutability": "view",
      "type": "function"
    },
    {
      "inputs": [
        {
          "internalType": "address",
          "name": "_newOwner",
          "type": "address"
        }
      ],
      "name": "changeOwner",
      "outputs": [],
      "stateMutability": "nonpayable",
      "type": "function"
    },
    {
      "inputs": [],
      "name": "getTimestamp",
      "outputs": [
        {
          "internalType": "uint256",
          "name": "",
          "type": "uint256"
        }
      ],
      "stateMutability": "view",
      "type": "function"
    },
    {
      "inputs": [
        {
          "internalType": "uint256",
          "name": "_alarm1",
          "type": "uint256"
        }
      ],
      "name": "initialize",
      "outputs": [],
      "stateMutability": "nonpayable",
      "type": "function"
    },
    {
      "inputs": [],
      "name": "initialized",
      "outputs": [
        {
          "internalType": "bool",
          "name": "",
          "type": "bool"
        }
      ],
      "stateMutability": "view",
      "type": "function"
    },
    {
      "inputs": [],
      "name": "owner",
      "outputs": [
        {
          "internalType": "address",
          "name": "",
          "type": "address"
        }
      ],
      "stateMutability": "view",
      "type": "function"
    },
    {
      "inputs": [],
      "name": "proxiableUUID",
      "outputs": [
        {
          "internalType": "bytes32",
          "name": "",
          "type": "bytes32"
        }
      ],
      "stateMutability": "pure",
      "type": "function"
    },
    {
      "inputs": [
        {
          "internalType": "uint256",
          "name": "_timestamp",
          "type": "uint256"
        }
      ],
      "name": "setAlarm1",
      "outputs": [],
      "stateMutability": "nonpayable",
      "type": "function"
    },
    {
      "inputs": [
        {
          "internalType": "address",
          "name": "_newImpl",
          "type": "address"
        }
      ],
      "name": "upgradeTo",
      "outputs": [],
      "stateMutability": "nonpayable",
      "type": "function"
    },
    {
      "inputs": [
        {
          "internalType": "address",
          "name": "_newImpl",
          "type": "address"
        },
        {
          "internalType": "bytes",
          "name": "data",
          "type": "bytes"
        }
      ],
      "name": "upgradeToAndCall",
      "outputs": [],
      "stateMutability": "nonpayable",
      "type": "function"
    }
  ],
  "bytecode": {
    "object": "0x608060405234801561001057600080fd5b50610606806100206000396000f3fe608060405234801561001057600080fd5b50600436106100a95760003560e01c80634f1ef286116100715780634f1ef2861461011257806352d1902d146101255780638da5cb5b1461014b578063a6f9dae114610176578063e744bf4d146101a6578063fe4b84df146101b957600080fd5b806306c24bd7146100ae5780631236c069146100ca578063158ef93e146100d3578063188ec356146100f75780633659cfe6146100fd575b600080fd5b6100b760015481565b6040519081526020015b60405180910390f35b6100b760025481565b6000546100e790600160a01b900460ff1681565b60405190151581526020016100c1565b426100b7565b61011061010b366004610467565b6101cc565b005b61011061012036600461049f565b6101d8565b7fc5f16f0fcc639fa48a6947836d9850f504798523bf8c9a3a87d5876cf622bcf76100b7565b60005461015e906001600160a01b031681565b6040516001600160a01b0390911681526020016100c1565b610110610184366004610467565b600080546001600160a01b0319166001600160a01b0392909216919091179055565b6101106101b4366004610561565b600155565b6101106101c7366004610561565b61028c565b6101d5816102f4565b50565b6101e1826101cc565b6000826001600160a01b0316826040516101fb919061057a565b600060405180830381855af49150503d8060008114610236576040519150601f19603f3d011682016040523d82523d6000602084013e61023b565b606091505b50509050806102875760405162461bcd60e51b815260206004820152601360248201527219195b1959d85d1958d85b1b0819985a5b1959606a1b60448201526064015b60405180910390fd5b505050565b600054600160a01b900460ff16156102dc5760405162461bcd60e51b8152602060048201526013602482015272105b1c9958591e481a5b9a5d1a585b1a5e9959606a1b604482015260640161027e565b6001556000805460ff60a01b1916600160a01b179055565b60408051600481526024810182526020810180516001600160e01b03166352d1902d60e01b179052905160009182916001600160a01b038516916103379161057a565b6000604051808303816000865af19150503d8060008114610374576040519150601f19603f3d011682016040523d82523d6000602084013e610379565b606091505b5091509150816103bd5760405162461bcd60e51b815260206004820152600f60248201526e4e6f7420612050726f786961626c6560881b604482015260640161027e565b7fc5f16f0fcc639fa48a6947836d9850f504798523bf8c9a3a87d5876cf622bcf76103e7826105a9565b146104225760405162461bcd60e51b815260206004820152600b60248201526a139bdd0818dbdc9c9958dd60aa1b604482015260640161027e565b6102877fc5f16f0fcc639fa48a6947836d9850f504798523bf8c9a3a87d5876cf622bcf7849055565b80356001600160a01b038116811461046257600080fd5b919050565b60006020828403121561047957600080fd5b6104828261044b565b9392505050565b634e487b7160e01b600052604160045260246000fd5b600080604083850312156104b257600080fd5b6104bb8361044b565b9150602083013567ffffffffffffffff808211156104d857600080fd5b818501915085601f8301126104ec57600080fd5b8135818111156104fe576104fe610489565b604051601f8201601f19908116603f0116810190838211818310171561052657610526610489565b8160405282815288602084870101111561053f57600080fd5b8260208601602083013760006020848301015280955050505050509250929050565b60006020828403121561057357600080fd5b5035919050565b6000825160005b8181101561059b5760208186018101518583015201610581565b506000920191825250919050565b805160208083015191908110156105ca576000198160200360031b1b821691505b5091905056fea26469706673582212200bf05717248d598990a6c75d897c0e9d4e50cc21fdd504f76f153eed6bfe60ca64736f6c63430008110033",
    "linkReferences": {}
  },
  "methodIdentifiers": {
    "alarm1()": "06c24bd7",
    "alarm2()": "1236c069",
    "changeOwner(address)": "a6f9dae1",
    "getTimestamp()": "188ec356",
    "initialize(uint256)": "fe4b84df",
    "initialized()": "158ef93e",
    "owner()": "8da5cb5b",
    "proxiableUUID()": "52d1902d",
    "setAlarm1(uint256)": "e744bf4d",
    "upgradeTo(address)": "3659cfe6",
    "upgradeToAndCall(address,bytes)": "4f1ef286"
  },
  "id": 21
}