{
  "abi": [
    {
      "inputs": [],
      "name": "alarm1",
      "outputs": [
        {
          "internalType": "uint256",
          "name": "",
          "type": "uint256"
        }
      ],
      "stateMutability": "view",
      "type": "function"
    },
    {
      "inputs": [],
      "name": "alarm2",
      "outputs": [
        {
          "internalType": "uint256",
          "name": "",
          "type": "uint256"
        }
      ],
      "stateMutability": "view",
      "type": "function"
    },
    {
      "inputs": [
        {
          "internalType": "address",
          "name": "_newOwner",
          "type": "address"
        }
      ],
      "name": "changeOwner",
      "outputs": [],
      "stateMutability": "nonpayable",
      "type": "function"
    },
    {
      "inputs": [],
      "name": "getTimestamp",
      "outputs": [
        {
          "internalType": "uint256",
          "name": "",
          "type": "uint256"
        }
      ],
      "stateMutability": "view",
      "type": "function"
    },
    {
      "inputs": [
        {
          "internalType": "uint256",
          "name": "_alarm1",
          "type": "uint256"
        }
      ],
      "name": "initialize",
      "outputs": [],
      "stateMutability": "nonpayable",
      "type": "function"
    },
    {
      "inputs": [],
      "name": "initialized",
      "outputs": [
        {
          "internalType": "bool",
          "name": "",
          "type": "bool"
        }
      ],
      "stateMutability": "view",
      "type": "function"
    },
    {
      "inputs": [],
      "name": "owner",
      "outputs": [
        {
          "internalType": "address",
          "name": "",
          "type": "address"
        }
      ],
      "stateMutability": "view",
      "type": "function"
    },
    {
      "inputs": [],
      "name": "proxiableUUID",
      "outputs": [
        {
          "internalType": "bytes32",
          "name": "",
          "type": "bytes32"
        }
      ],
      "stateMutability": "pure",
      "type": "function"
    },
    {
      "inputs": [
        {
          "internalType": "uint256",
          "name": "_timestamp",
          "type": "uint256"
        }
      ],
      "name": "setAlarm1",
      "outputs": [],
      "stateMutability": "nonpayable",
      "type": "function"
    },
    {
      "inputs": [
        {
          "internalType": "uint256",
          "name": "_timestamp",
          "type": "uint256"
        }
      ],
      "name": "setAlarm2",
      "outputs": [],
      "stateMutability": "nonpayable",
      "type": "function"
    }
  ],
  "bytecode": {
    "object": "0x608060405234801561001057600080fd5b50610294806100206000396000f3fe608060405234801561001057600080fd5b506004361061009e5760003560e01c80638da5cb5b116100665780638da5cb5b14610118578063a6f9dae114610143578063b2a1974714610175578063e744bf4d14610188578063fe4b84df1461019b57600080fd5b806306c24bd7146100a35780631236c069146100bf578063158ef93e146100c8578063188ec356146100ec57806352d1902d146100f2575b600080fd5b6100ac60015481565b6040519081526020015b60405180910390f35b6100ac60025481565b6000546100dc90600160a01b900460ff1681565b60405190151581526020016100b6565b426100ac565b7fc5f16f0fcc639fa48a6947836d9850f504798523bf8c9a3a87d5876cf622bcf76100ac565b60005461012b906001600160a01b031681565b6040516001600160a01b0390911681526020016100b6565b610173610151366004610215565b600080546001600160a01b0319166001600160a01b0392909216919091179055565b005b610173610183366004610245565b600255565b610173610196366004610245565b600155565b6101736101a9366004610245565b600054600160a01b900460ff16156101fd5760405162461bcd60e51b8152602060048201526013602482015272105b1c9958591e481a5b9a5d1a585b1a5e9959606a1b604482015260640160405180910390fd5b6001556000805460ff60a01b1916600160a01b179055565b60006020828403121561022757600080fd5b81356001600160a01b038116811461023e57600080fd5b9392505050565b60006020828403121561025757600080fd5b503591905056fea2646970667358221220af4157ece867987bb2a94b10ee327de4f9452d0daea557081b13f0aa54d3a94364736f6c63430008110033",
    "linkReferences": {}
  },
  "methodIdentifiers": {
    "alarm1()": "06c24bd7",
    "alarm2()": "1236c069",
    "changeOwner(address)": "a6f9dae1",
    "getTimestamp()": "188ec356",
    "initialize(uint256)": "fe4b84df",
    "initialized()": "158ef93e",
    "owner()": "8da5cb5b",
    "proxiableUUID()": "52d1902d",
    "setAlarm1(uint256)": "e744bf4d",
    "setAlarm2(uint256)": "b2a19747"
  },
  "id": 26
}