{
  "abi": [
    {
      "inputs": [
        {
          "internalType": "address",
          "name": "_implementation",
          "type": "address"
        }
      ],
      "stateMutability": "nonpayable",
      "type": "constructor"
    },
    {
      "stateMutability": "payable",
      "type": "fallback"
    },
    {
      "inputs": [
        {
          "internalType": "address",
          "name": "_newImpl",
          "type": "address"
        }
      ],
      "name": "upgradeTo",
      "outputs": [],
      "stateMutability": "nonpayable",
      "type": "function"
    },
    {
      "inputs": [
        {
          "internalType": "address",
          "name": "_newImpl",
          "type": "address"
        },
        {
          "internalType": "bytes",
          "name": "data",
          "type": "bytes"
        }
      ],
      "name": "upgradeToAndCall",
      "outputs": [],
      "stateMutability": "nonpayable",
      "type": "function"
    },
    {
      "stateMutability": "payable",
      "type": "receive"
    }
  ],
  "bytecode": {
    "object": "0x608060405234801561001057600080fd5b5060405161059138038061059183398101604081905261002f916100a7565b8061005161004c60016000805160206105718339815191526100d7565b829055565b5061006e61004c60016000805160206105718339815191526100d7565b6100a161009c60017fb53127684a568b3173ae13b9f8a6016e243e63b6e8ee1178d6a717850b5d61046100d7565b339055565b506100fe565b6000602082840312156100b957600080fd5b81516001600160a01b03811681146100d057600080fd5b9392505050565b818103818111156100f857634e487b7160e01b600052601160045260246000fd5b92915050565b6104648061010d6000396000f3fe60806040526004361061002d5760003560e01c80633659cfe6146100c65780634f1ef286146100e657610034565b3661003457005b3361003d610106565b6001600160a01b03160361008a5760405162461bcd60e51b815260206004820152600f60248201526e61646d696e206e6f7420616c6c6f7760881b60448201526064015b60405180910390fd5b6100c46100bf6100bb60017f360894a13ba1a3210667c828492db98dca3e2076cc3735a920a3ca505d382bbd6102c2565b5490565b61013b565b005b3480156100d257600080fd5b506100c46100e1366004610305565b610164565b3480156100f257600080fd5b506100c461010136600461033d565b6101bf565b60006101366100bb60017fb53127684a568b3173ae13b9f8a6016e243e63b6e8ee1178d6a717850b5d61046102c2565b905090565b3660008037600080366000845af43d6000803e80801561015a573d6000f35b3d6000fd5b505050565b600061016e610106565b9050336001600160a01b038216036101b7576101b36101ae60017f360894a13ba1a3210667c828492db98dca3e2076cc3735a920a3ca505d382bbd6102c2565b839055565b5050565b6101b361028f565b60006101c9610106565b9050336001600160a01b0382160361028b576101e483610164565b6000836001600160a01b0316836040516101fe91906103ff565b600060405180830381855af49150503d8060008114610239576040519150601f19603f3d011682016040523d82523d6000602084013e61023e565b606091505b50509050806102855760405162461bcd60e51b815260206004820152601360248201527219195b1959d85d1958d85b1b0819985a5b1959606a1b6044820152606401610081565b50505050565b61015f5b6102c06100bf6100bb60017f360894a13ba1a3210667c828492db98dca3e2076cc3735a920a3ca505d382bbd6102c2565b565b818103818111156102e357634e487b7160e01b600052601160045260246000fd5b92915050565b80356001600160a01b038116811461030057600080fd5b919050565b60006020828403121561031757600080fd5b610320826102e9565b9392505050565b634e487b7160e01b600052604160045260246000fd5b6000806040838503121561035057600080fd5b610359836102e9565b9150602083013567ffffffffffffffff8082111561037657600080fd5b818501915085601f83011261038a57600080fd5b81358181111561039c5761039c610327565b604051601f8201601f19908116603f011681019083821181831017156103c4576103c4610327565b816040528281528860208487010111156103dd57600080fd5b8260208601602083013760006020848301015280955050505050509250929050565b6000825160005b818110156104205760208186018101518583015201610406565b50600092019182525091905056fea2646970667358221220befd10c5f2bfd0ebaab4b23b4091873b09e2dac12389e76cec8ba4a79724069664736f6c63430008110033360894a13ba1a3210667c828492db98dca3e2076cc3735a920a3ca505d382bbd",
    "linkReferences": {}
  },
  "methodIdentifiers": {
    "upgradeTo(address)": "3659cfe6",
    "upgradeToAndCall(address,bytes)": "4f1ef286"
  },
  "id": 22
}