{
  "abi": [
    {
      "inputs": [
        {
          "internalType": "address",
          "name": "_implementation",
          "type": "address"
        }
      ],
      "stateMutability": "nonpayable",
      "type": "constructor"
    },
    {
      "stateMutability": "payable",
      "type": "fallback"
    },
    {
      "inputs": [
        {
          "internalType": "address",
          "name": "_newImpl",
          "type": "address"
        }
      ],
      "name": "upgradeTo",
      "outputs": [],
      "stateMutability": "nonpayable",
      "type": "function"
    },
    {
      "inputs": [
        {
          "internalType": "address",
          "name": "_newImpl",
          "type": "address"
        },
        {
          "internalType": "bytes",
          "name": "data",
          "type": "bytes"
        }
      ],
      "name": "upgradeToAndCall",
      "outputs": [],
      "stateMutability": "nonpayable",
      "type": "function"
    },
    {
      "stateMutability": "payable",
      "type": "receive"
    }
  ],
  "bytecode": {
    "object": "0x608060405234801561001057600080fd5b5060405161042d38038061042d83398101604081905261002f91610068565b61006261005d60017f360894a13ba1a3210667c828492db98dca3e2076cc3735a920a3ca505d382bbd610098565b829055565b506100bf565b60006020828403121561007a57600080fd5b81516001600160a01b038116811461009157600080fd5b9392505050565b818103818111156100b957634e487b7160e01b600052601160045260246000fd5b92915050565b61035f806100ce6000396000f3fe60806040526004361061002d5760003560e01c80633659cfe6146100705780634f1ef2861461009057610034565b3661003457005b61006e61006961006560017f360894a13ba1a3210667c828492db98dca3e2076cc3735a920a3ca505d382bbd6101bd565b5490565b6100b0565b005b34801561007c57600080fd5b5061006e61008b366004610200565b6100d9565b34801561009c57600080fd5b5061006e6100ab366004610238565b61010f565b3660008037600080366000845af43d6000803e8080156100cf573d6000f35b3d6000fd5b505050565b61010c61010760017f360894a13ba1a3210667c828492db98dca3e2076cc3735a920a3ca505d382bbd6101bd565b829055565b50565b610118826100d9565b6000826001600160a01b03168260405161013291906102fa565b600060405180830381855af49150503d806000811461016d576040519150601f19603f3d011682016040523d82523d6000602084013e610172565b606091505b50509050806100d45760405162461bcd60e51b815260206004820152601360248201527219195b1959d85d1958d85b1b0819985a5b1959606a1b604482015260640160405180910390fd5b818103818111156101de57634e487b7160e01b600052601160045260246000fd5b92915050565b80356001600160a01b03811681146101fb57600080fd5b919050565b60006020828403121561021257600080fd5b61021b826101e4565b9392505050565b634e487b7160e01b600052604160045260246000fd5b6000806040838503121561024b57600080fd5b610254836101e4565b9150602083013567ffffffffffffffff8082111561027157600080fd5b818501915085601f83011261028557600080fd5b81358181111561029757610297610222565b604051601f8201601f19908116603f011681019083821181831017156102bf576102bf610222565b816040528281528860208487010111156102d857600080fd5b8260208601602083013760006020848301015280955050505050509250929050565b6000825160005b8181101561031b5760208186018101518583015201610301565b50600092019182525091905056fea264697066735822122008c3348fab504358a0092f5b2b5b9442746d9111a7ed9cc2b98325c8fb3cbe8264736f6c63430008110033",
    "linkReferences": {}
  },
  "methodIdentifiers": {
    "upgradeTo(address)": "3659cfe6",
    "upgradeToAndCall(address,bytes)": "4f1ef286"
  },
  "id": 17
}